{
  "_format": "hh-sol-artifact-1",
  "contractName": "NFT",
  "sourceName": "contracts/NFT.sol",
  "abi": [
    {
      "inputs": [],
      "stateMutability": "nonpayable",
      "type": "constructor"
    },
    {
      "anonymous": false,
      "inputs": [
        {
          "indexed": true,
          "internalType": "address",
          "name": "owner",
          "type": "address"
        },
        {
          "indexed": true,
          "internalType": "address",
          "name": "approved",
          "type": "address"
        },
        {
          "indexed": true,
          "internalType": "uint256",
          "name": "tokenId",
          "type": "uint256"
        }
      ],
      "name": "Approval",
      "type": "event"
    },
    {
      "anonymous": false,
      "inputs": [
        {
          "indexed": true,
          "internalType": "address",
          "name": "owner",
          "type": "address"
        },
        {
          "indexed": true,
          "internalType": "address",
          "name": "operator",
          "type": "address"
        },
        {
          "indexed": false,
          "internalType": "bool",
          "name": "approved",
          "type": "bool"
        }
      ],
      "name": "ApprovalForAll",
      "type": "event"
    },
    {
      "anonymous": false,
      "inputs": [
        {
          "indexed": true,
          "internalType": "address",
          "name": "from",
          "type": "address"
        },
        {
          "indexed": true,
          "internalType": "address",
          "name": "to",
          "type": "address"
        },
        {
          "indexed": true,
          "internalType": "uint256",
          "name": "tokenId",
          "type": "uint256"
        }
      ],
      "name": "Transfer",
      "type": "event"
    },
    {
      "inputs": [
        {
          "internalType": "address",
          "name": "to",
          "type": "address"
        },
        {
          "internalType": "uint256",
          "name": "tokenId",
          "type": "uint256"
        }
      ],
      "name": "approve",
      "outputs": [],
      "stateMutability": "nonpayable",
      "type": "function"
    },
    {
      "inputs": [
        {
          "internalType": "address",
          "name": "owner",
          "type": "address"
        }
      ],
      "name": "balanceOf",
      "outputs": [
        {
          "internalType": "uint256",
          "name": "",
          "type": "uint256"
        }
      ],
      "stateMutability": "view",
      "type": "function"
    },
    {
      "inputs": [
        {
          "internalType": "uint256",
          "name": "tokenId",
          "type": "uint256"
        }
      ],
      "name": "getApproved",
      "outputs": [
        {
          "internalType": "address",
          "name": "",
          "type": "address"
        }
      ],
      "stateMutability": "view",
      "type": "function"
    },
    {
      "inputs": [
        {
          "internalType": "address",
          "name": "owner",
          "type": "address"
        },
        {
          "internalType": "address",
          "name": "operator",
          "type": "address"
        }
      ],
      "name": "isApprovedForAll",
      "outputs": [
        {
          "internalType": "bool",
          "name": "",
          "type": "bool"
        }
      ],
      "stateMutability": "view",
      "type": "function"
    },
    {
      "inputs": [
        {
          "internalType": "address",
          "name": "recipient",
          "type": "address"
        }
      ],
      "name": "mintTo",
      "outputs": [
        {
          "internalType": "uint256",
          "name": "",
          "type": "uint256"
        }
      ],
      "stateMutability": "nonpayable",
      "type": "function"
    },
    {
      "inputs": [],
      "name": "name",
      "outputs": [
        {
          "internalType": "string",
          "name": "",
          "type": "string"
        }
      ],
      "stateMutability": "view",
      "type": "function"
    },
    {
      "inputs": [
        {
          "internalType": "uint256",
          "name": "tokenId",
          "type": "uint256"
        }
      ],
      "name": "ownerOf",
      "outputs": [
        {
          "internalType": "address",
          "name": "",
          "type": "address"
        }
      ],
      "stateMutability": "view",
      "type": "function"
    },
    {
      "inputs": [
        {
          "internalType": "address",
          "name": "from",
          "type": "address"
        },
        {
          "internalType": "address",
          "name": "to",
          "type": "address"
        },
        {
          "internalType": "uint256",
          "name": "tokenId",
          "type": "uint256"
        }
      ],
      "name": "safeTransferFrom",
      "outputs": [],
      "stateMutability": "nonpayable",
      "type": "function"
    },
    {
      "inputs": [
        {
          "internalType": "address",
          "name": "from",
          "type": "address"
        },
        {
          "internalType": "address",
          "name": "to",
          "type": "address"
        },
        {
          "internalType": "uint256",
          "name": "tokenId",
          "type": "uint256"
        },
        {
          "internalType": "bytes",
          "name": "_data",
          "type": "bytes"
        }
      ],
      "name": "safeTransferFrom",
      "outputs": [],
      "stateMutability": "nonpayable",
      "type": "function"
    },
    {
      "inputs": [
        {
          "internalType": "address",
          "name": "operator",
          "type": "address"
        },
        {
          "internalType": "bool",
          "name": "approved",
          "type": "bool"
        }
      ],
      "name": "setApprovalForAll",
      "outputs": [],
      "stateMutability": "nonpayable",
      "type": "function"
    },
    {
      "inputs": [
        {
          "internalType": "bytes4",
          "name": "interfaceId",
          "type": "bytes4"
        }
      ],
      "name": "supportsInterface",
      "outputs": [
        {
          "internalType": "bool",
          "name": "",
          "type": "bool"
        }
      ],
      "stateMutability": "view",
      "type": "function"
    },
    {
      "inputs": [],
      "name": "symbol",
      "outputs": [
        {
          "internalType": "string",
          "name": "",
          "type": "string"
        }
      ],
      "stateMutability": "view",
      "type": "function"
    },
    {
      "inputs": [
        {
          "internalType": "uint256",
          "name": "tokenId",
          "type": "uint256"
        }
      ],
      "name": "tokenURI",
      "outputs": [
        {
          "internalType": "string",
          "name": "",
          "type": "string"
        }
      ],
      "stateMutability": "view",
      "type": "function"
    },
    {
      "inputs": [
        {
          "internalType": "address",
          "name": "from",
          "type": "address"
        },
        {
          "internalType": "address",
          "name": "to",
          "type": "address"
        },
        {
          "internalType": "uint256",
          "name": "tokenId",
          "type": "uint256"
        }
      ],
      "name": "transferFrom",
      "outputs": [],
      "stateMutability": "nonpayable",
      "type": "function"
    }
  ],
  "bytecode": "0x60806040523480156200001157600080fd5b50604080518082018252600b81526a139195151d5d1bdc9a585b60aa1b60208083019182528351808501909452600384526213919560ea1b90840152815191929162000060916000916200007f565b508051620000769060019060208401906200007f565b50505062000162565b8280546200008d9062000125565b90600052602060002090601f016020900481019282620000b15760008555620000fc565b82601f10620000cc57805160ff1916838001178555620000fc565b82800160010185558215620000fc579182015b82811115620000fc578251825591602001919060010190620000df565b506200010a9291506200010e565b5090565b5b808211156200010a57600081556001016200010f565b600181811c908216806200013a57607f821691505b602082108114156200015c57634e487b7160e01b600052602260045260246000fd5b50919050565b61164680620001726000396000f3fe608060405234801561001057600080fd5b50600436106100ea5760003560e01c806370a082311161008c578063a22cb46511610066578063a22cb465146101e1578063b88d4fde146101f4578063c87b56dd14610207578063e985e9c51461021a57600080fd5b806370a08231146101a5578063755edd17146101c657806395d89b41146101d957600080fd5b8063095ea7b3116100c8578063095ea7b31461015757806323b872dd1461016c57806342842e0e1461017f5780636352211e1461019257600080fd5b806301ffc9a7146100ef57806306fdde0314610117578063081812fc1461012c575b600080fd5b6101026100fd3660046113e2565b610256565b60405190151581526020015b60405180910390f35b61011f6102f3565b60405161010e91906114c9565b61013f61013a36600461141a565b610385565b6040516001600160a01b03909116815260200161010e565b61016a6101653660046113b9565b61041f565b005b61016a61017a36600461126f565b610551565b61016a61018d36600461126f565b6105d8565b61013f6101a036600461141a565b6105f3565b6101b86101b3366004611223565b61067e565b60405190815260200161010e565b6101b86101d4366004611223565b610718565b61011f61073f565b61016a6101ef36600461137f565b61074e565b61016a6102023660046112aa565b61075d565b61011f61021536600461141a565b6107eb565b61010261022836600461123d565b6001600160a01b03918216600090815260056020908152604080832093909416825291909152205460ff1690565b60006001600160e01b031982167f80ac58cd0000000000000000000000000000000000000000000000000000000014806102b957506001600160e01b031982167f5b5e139f00000000000000000000000000000000000000000000000000000000145b806102ed57507f01ffc9a7000000000000000000000000000000000000000000000000000000006001600160e01b03198316145b92915050565b6060600080546103029061154b565b80601f016020809104026020016040519081016040528092919081815260200182805461032e9061154b565b801561037b5780601f106103505761010080835404028352916020019161037b565b820191906000526020600020905b81548152906001019060200180831161035e57829003601f168201915b5050505050905090565b6000818152600260205260408120546001600160a01b03166104035760405162461bcd60e51b815260206004820152602c60248201527f4552433732313a20617070726f76656420717565727920666f72206e6f6e657860448201526b34b9ba32b73a103a37b5b2b760a11b60648201526084015b60405180910390fd5b506000908152600460205260409020546001600160a01b031690565b600061042a826105f3565b9050806001600160a01b0316836001600160a01b031614156104b45760405162461bcd60e51b815260206004820152602160248201527f4552433732313a20617070726f76616c20746f2063757272656e74206f776e6560448201527f720000000000000000000000000000000000000000000000000000000000000060648201526084016103fa565b336001600160a01b03821614806104d057506104d08133610228565b6105425760405162461bcd60e51b815260206004820152603860248201527f4552433732313a20617070726f76652063616c6c6572206973206e6f74206f7760448201527f6e6572206e6f7220617070726f76656420666f7220616c6c000000000000000060648201526084016103fa565b61054c83836108e1565b505050565b61055b338261095c565b6105cd5760405162461bcd60e51b815260206004820152603160248201527f4552433732313a207472616e736665722063616c6c6572206973206e6f74206f60448201527f776e6572206e6f7220617070726f76656400000000000000000000000000000060648201526084016103fa565b61054c838383610a53565b61054c8383836040518060200160405280600081525061075d565b6000818152600260205260408120546001600160a01b0316806102ed5760405162461bcd60e51b815260206004820152602960248201527f4552433732313a206f776e657220717565727920666f72206e6f6e657869737460448201527f656e7420746f6b656e000000000000000000000000000000000000000000000060648201526084016103fa565b60006001600160a01b0382166106fc5760405162461bcd60e51b815260206004820152602a60248201527f4552433732313a2062616c616e636520717565727920666f7220746865207a6560448201527f726f20616464726573730000000000000000000000000000000000000000000060648201526084016103fa565b506001600160a01b031660009081526003602052604090205490565b6000610728600680546001019055565b600061073360065490565b90506102ed8382610c2d565b6060600180546103029061154b565b610759338383610c47565b5050565b610767338361095c565b6107d95760405162461bcd60e51b815260206004820152603160248201527f4552433732313a207472616e736665722063616c6c6572206973206e6f74206f60448201527f776e6572206e6f7220617070726f76656400000000000000000000000000000060648201526084016103fa565b6107e584848484610d16565b50505050565b6000818152600260205260409020546060906001600160a01b03166108785760405162461bcd60e51b815260206004820152602f60248201527f4552433732314d657461646174613a2055524920717565727920666f72206e6f60448201527f6e6578697374656e7420746f6b656e000000000000000000000000000000000060648201526084016103fa565b600061088f60408051602081019091526000815290565b905060008151116108af57604051806020016040528060008152506108da565b806108b984610d94565b6040516020016108ca92919061145e565b6040516020818303038152906040525b9392505050565b6000818152600460205260409020805473ffffffffffffffffffffffffffffffffffffffff19166001600160a01b0384169081179091558190610923826105f3565b6001600160a01b03167f8c5be1e5ebec7d5bd14f71427d1e84f3dd0314c0f7b2291e5b200ac8c7c3b92560405160405180910390a45050565b6000818152600260205260408120546001600160a01b03166109d55760405162461bcd60e51b815260206004820152602c60248201527f4552433732313a206f70657261746f7220717565727920666f72206e6f6e657860448201526b34b9ba32b73a103a37b5b2b760a11b60648201526084016103fa565b60006109e0836105f3565b9050806001600160a01b0316846001600160a01b03161480610a1b5750836001600160a01b0316610a1084610385565b6001600160a01b0316145b80610a4b57506001600160a01b0380821660009081526005602090815260408083209388168352929052205460ff165b949350505050565b826001600160a01b0316610a66826105f3565b6001600160a01b031614610ae25760405162461bcd60e51b815260206004820152602560248201527f4552433732313a207472616e736665722066726f6d20696e636f72726563742060448201527f6f776e657200000000000000000000000000000000000000000000000000000060648201526084016103fa565b6001600160a01b038216610b5d5760405162461bcd60e51b8152602060048201526024808201527f4552433732313a207472616e7366657220746f20746865207a65726f2061646460448201527f726573730000000000000000000000000000000000000000000000000000000060648201526084016103fa565b610b686000826108e1565b6001600160a01b0383166000908152600360205260408120805460019290610b91908490611508565b90915550506001600160a01b0382166000908152600360205260408120805460019290610bbf9084906114dc565b9091555050600081815260026020526040808220805473ffffffffffffffffffffffffffffffffffffffff19166001600160a01b0386811691821790925591518493918716917fddf252ad1be2c89b69c2b068fc378daa952ba7f163c4a11628f55a4df523b3ef91a4505050565b610759828260405180602001604052806000815250610ee2565b816001600160a01b0316836001600160a01b03161415610ca95760405162461bcd60e51b815260206004820152601960248201527f4552433732313a20617070726f766520746f2063616c6c65720000000000000060448201526064016103fa565b6001600160a01b03838116600081815260056020908152604080832094871680845294825291829020805460ff191686151590811790915591519182527f17307eab39ab6107e8899845ad3d59bd9653f200f220920489ca2b5937696c31910160405180910390a3505050565b610d21848484610a53565b610d2d84848484610f60565b6107e55760405162461bcd60e51b815260206004820152603260248201527f4552433732313a207472616e7366657220746f206e6f6e20455243373231526560448201527131b2b4bb32b91034b6b83632b6b2b73a32b960711b60648201526084016103fa565b606081610dd457505060408051808201909152600181527f3000000000000000000000000000000000000000000000000000000000000000602082015290565b8160005b8115610dfe5780610de881611586565b9150610df79050600a836114f4565b9150610dd8565b60008167ffffffffffffffff811115610e2757634e487b7160e01b600052604160045260246000fd5b6040519080825280601f01601f191660200182016040528015610e51576020820181803683370190505b5090505b8415610a4b57610e66600183611508565b9150610e73600a866115a1565b610e7e9060306114dc565b60f81b818381518110610ea157634e487b7160e01b600052603260045260246000fd5b60200101907effffffffffffffffffffffffffffffffffffffffffffffffffffffffffffff1916908160001a905350610edb600a866114f4565b9450610e55565b610eec83836110b8565b610ef96000848484610f60565b61054c5760405162461bcd60e51b815260206004820152603260248201527f4552433732313a207472616e7366657220746f206e6f6e20455243373231526560448201527131b2b4bb32b91034b6b83632b6b2b73a32b960711b60648201526084016103fa565b60006001600160a01b0384163b156110ad57604051630a85bd0160e11b81526001600160a01b0385169063150b7a0290610fa490339089908890889060040161148d565b602060405180830381600087803b158015610fbe57600080fd5b505af1925050508015610fee575060408051601f3d908101601f19168201909252610feb918101906113fe565b60015b611093573d80801561101c576040519150601f19603f3d011682016040523d82523d6000602084013e611021565b606091505b50805161108b5760405162461bcd60e51b815260206004820152603260248201527f4552433732313a207472616e7366657220746f206e6f6e20455243373231526560448201527131b2b4bb32b91034b6b83632b6b2b73a32b960711b60648201526084016103fa565b805181602001fd5b6001600160e01b031916630a85bd0160e11b149050610a4b565b506001949350505050565b6001600160a01b03821661110e5760405162461bcd60e51b815260206004820181905260248201527f4552433732313a206d696e7420746f20746865207a65726f206164647265737360448201526064016103fa565b6000818152600260205260409020546001600160a01b0316156111735760405162461bcd60e51b815260206004820152601c60248201527f4552433732313a20746f6b656e20616c7265616479206d696e7465640000000060448201526064016103fa565b6001600160a01b038216600090815260036020526040812080546001929061119c9084906114dc565b9091555050600081815260026020526040808220805473ffffffffffffffffffffffffffffffffffffffff19166001600160a01b03861690811790915590518392907fddf252ad1be2c89b69c2b068fc378daa952ba7f163c4a11628f55a4df523b3ef908290a45050565b80356001600160a01b038116811461121e57600080fd5b919050565b600060208284031215611234578081fd5b6108da82611207565b6000806040838503121561124f578081fd5b61125883611207565b915061126660208401611207565b90509250929050565b600080600060608486031215611283578081fd5b61128c84611207565b925061129a60208501611207565b9150604084013590509250925092565b600080600080608085870312156112bf578081fd5b6112c885611207565b93506112d660208601611207565b925060408501359150606085013567ffffffffffffffff808211156112f9578283fd5b818701915087601f83011261130c578283fd5b81358181111561131e5761131e6115e1565b604051601f8201601f19908116603f01168101908382118183101715611346576113466115e1565b816040528281528a602084870101111561135e578586fd5b82602086016020830137918201602001949094529598949750929550505050565b60008060408385031215611391578182fd5b61139a83611207565b9150602083013580151581146113ae578182fd5b809150509250929050565b600080604083850312156113cb578182fd5b6113d483611207565b946020939093013593505050565b6000602082840312156113f3578081fd5b81356108da816115f7565b60006020828403121561140f578081fd5b81516108da816115f7565b60006020828403121561142b578081fd5b5035919050565b6000815180845261144a81602086016020860161151f565b601f01601f19169290920160200192915050565b6000835161147081846020880161151f565b83519083019061148481836020880161151f565b01949350505050565b60006001600160a01b038087168352808616602084015250836040830152608060608301526114bf6080830184611432565b9695505050505050565b6020815260006108da6020830184611432565b600082198211156114ef576114ef6115b5565b500190565b600082611503576115036115cb565b500490565b60008282101561151a5761151a6115b5565b500390565b60005b8381101561153a578181015183820152602001611522565b838111156107e55750506000910152565b600181811c9082168061155f57607f821691505b6020821081141561158057634e487b7160e01b600052602260045260246000fd5b50919050565b600060001982141561159a5761159a6115b5565b5060010190565b6000826115b0576115b06115cb565b500690565b634e487b7160e01b600052601160045260246000fd5b634e487b7160e01b600052601260045260246000fd5b634e487b7160e01b600052604160045260246000fd5b6001600160e01b03198116811461160d57600080fd5b5056fea2646970667358221220344b712ee7f4511f153167253522455d087511fd384d89db94d777aaa19913ce64736f6c63430008040033",
  "linkReferences": {},
  "deployedLinkReferences": {}
}